:020000021000EC
:1080000000400020FDC9010045CA010047CA010027
:108010000000000000000000000000000000000060
:1080200000000000000000000000000049CA01003C
:1080300000000000000000004BCA01004DCA010012
:108040004FCA01004FCA0100E9890100798C010083
:108050004FCA0100000000004FCA0100898D0100D5
:108060004FCA0100D9860100418601004FCA0100B4
:108070004FCA01004FCA01004FCA01004FCA010098
:108080004FCA010035AF01004FCA01004FCA0100BD
:1080900015B0010001910100C9C901004FCA0100DA
:1080A0004FCA01004FCA010000000000000000009C
:1080B00000000000000000000000000000000000C0
:1080C00010B5064C2378002B07D1054B002B02D0AE
:1080D000044800E000BF0123237010BDB42000203D
:1080E00000000000482A0200044B10B5002B03D00A
:1080F0000349044800E000BF10BDC0460000000076
:10810000B8200020482A0200164B002B00D1144B47
:108110009D46402292029A1A924600218B460F46B3
:108120001348144A121A00F065F80F4B002B00D0C8
:1081300098470E4B002B00D09847002000210400E8
:108140000D000D48002802D00C4800E000BF00F0F0
:108150002DF82000290000F043F900F011F8C04686
:1081600000000800004000200000000000000000A7
:10817000B4200020682A0020000000000000000059
:10818000084B10B50400002B02D0002100E000BF16
:10819000054B1868836A002B00D09847200000F038
:1081A00031F8C046000000004817020070B50026F4
:1081B0000C4D0D4C641BA410A64209D1002609F0F9
:1081C000B7FA0A4D0A4C641BA410A64205D170BD33
:1081D000B300EB5898470136EEE7B300EB589847E9
:1081E0000136F2E7AC200020AC200020AC200020BB
:1081F000B020002003001218934200D1704719707C
:108200000133F9E7FEE7C0461B4B1B78012B00D07A
:1082100070471A4B1B681B07FAD1F022184B1B68DA
:10822000134001D0102B24D1164B1B68134210D0E1
:10823000F022134B1B681340402BE9D1114B1B68F4
:108240001342E5D18022C1230121D205DB00D150A8
:10825000DEE70D4B0D4A1A6080220D4B12021A60A8
:10826000054B1B78012BD3D1044B1B681B07DFD0B8
:10827000CEE7302BD8D0DBE7E00F00F0E40F00F0C2
:10828000E80F00F0EC0F00F004050040DFFF07C02E
:10829000186C004082B00190019B002B14D0019B10
:1082A0000A48013B01930138C046C046C046C0465B
:1082B000C046C046C046C046C046C046C046C0468E
:1082C000F1D1019B002BEAD102B07047E703000017
:1082D0001B38C0B270B55D285AD83C4B80001B5883
:1082E0009F4605253220322132223223384C0A386B
:1082F000E080FA20013D0A3B0A3A0A398000EDB2DB
:1083000023806280A180FFF7C5FF002D0BD00022E3
:10831000A35E0221625E0420215E0626A05FE6E7DE
:1083200001222C4B1A7070BD294A13880A3B1BB2DC
:10833000002B47DB1380F6E7254A93880A3B1BB2E4
:10834000002B3CDB9380EEE7214A13880A3313802D
:10835000E9E71F4A93880A339380E4E71C4AD388ED
:108360000A3B1BB2002B27DBD380DCE7184A53887B
:108370000A3B1BB2002B1CDB5380D4E7144AD38882
:108380000A33D380CFE7124A53880A335380CAE7AF
:10839000A023114ADB059A58520205D4A12280215C
:1083A000D200C9039950BEE780210C4AC9039950F5
:1083B000B9E700235380B6E70023D380B3E7002357
:1083C0009380B0E700231380ADE7C0464C1702004E
:1083D0003C2A0020462A0020040500000C0500006D
:1083E000F0B5DE4657464E464546E0B585B000F04E
:1083F0003DFB00F0D9F800F0D1F900F0D7FC00F017
:1084000075FC6421012002F0B3FC00F0C7FD00F010
:108410007FFF00F07DFE0023464F00253B70464B5A
:10842000464E9946464B474C9B46474B9A468223BD
:108430005B0098464346F35A002B70D100F0A2F936
:1084400000284CD06B1C14212800039305F00AF976
:1084500000290AD1A0213D4BC905CA588023DB055C
:108460001A4262D1A122D2008B5000F081FC00F0B0
:10847000BBFC00F077F90100354807F0CFFF04227C
:10848000A35E0221625E0020215E0625605F0090EF
:10849000304807F0C3FF304B00229B5E2F4A00217B
:1084A000525E2F490020095E484607F0B7FF2D4B6A
:1084B00000229B5E2C4A0021525E2C490020095E5E
:1084C000484607F0ABFF2A4B524619885B461268B4
:1084D0001B68284807F0A2FF00F05AF9039D02F03C
:1084E00035FC002810D13B78002BA3D0224807F0A0
:1084F00095FF6420FFF7CEFEBFF34F8F1F4B204A3E
:10850000DA60BFF34F8FFEE702F0D6FB00F03CF8D5
:108510003B78002BEAD14346F35A002B8ED0300033
:1085200000F00EFBFFF7D4FE88E7A021154AC9052D
:108530008B509AE7462A0020E4180200FC25002010
:108540000C2700203C2A00200427002004050000FE
:10855000C4180200D0180200F625002008270020C9
:1085600002270020442A0020182800202229002069
:108570001A280020F41802000819020000ED00E09B
:108580000400FA050C050000054A064B1188198005
:108590005188598091889980D288DA807047C04686
:1085A0003C2A002028290020A222194B1949D20078
:1085B0009950194A19498020995019490432995003
:1085C000184A1949C0039950A023EB210322DB0567
:1085D000C9005A5008315A5010315A5008315A5077
:1085E000A121C900585080204004585080204005E7
:1085F00058508020C00558500C495A5004315A50E8
:1086000028395A5008395A500021094A9950704760
:108610000060004003151300140500000317130049
:10862000031913001C050000031D13004C07000074
:10863000140700000122014B1A7070474C2A0020D9
:10864000A62210B51F4B52009958002939D000219D
:1086500099501D490A683932FF320A6001229A6432
:108660001A4A1278002A2CD1A922D2009A58F4234F
:10867000FF339A4225D81648828813B2DB43DB17B2
:108680001340FA2219B29200914201DD1100131C2D
:10869000C288838013B2DB43FA24DB1713401AB27B
:1086A000A400A24201DD2200231CC380FA239B0008
:1086B0009C46A820034B6144C00019500549624400
:1086C0005A5010BD00A00040482A00202429002054
:1086D0002829002044050000A62210B51D4B520099
:1086E0009958002935D0002199504C3AFF3A9A64A4
:1086F000194A1278002A2CD1A922D2009A58F423C0
:10870000FF339A4225D81548028813B2DB43DB17A2
:108710001340FA2219B29200914201DD1100131C9C
:108720004288038013B2DB43FA24DB1713401AB2EA
:10873000A400A24201DD2200231C4380FA239B00F7
:108740009C46A820034B6144C00019500449624470
:108750005A5010BD009000402429002028290020F4
:10876000440500000122054B9A64A922D2009858C2
:10877000034BC0081B68C0187047C04600A00040EB
:10878000482A0020014B18787047C0464C2A002028
:108790000022014B1A7070474C2A0020F8B557464A
:1087A0004E4645460023DE464F4AE0B513604F4A29
:1087B00001211370A2234E4ADB00D1509C46C123F5
:1087C0009B009A4680231B039B4653465846A82786
:1087D000FA24D050474E484B484DA400FF0080205B
:1087E000D451994694515351082365468000135043
:1087F0009846434BD1605E46595155465E513D4EB9
:10880000DC519C514C463D4D5C5144461C50D96056
:108810001160C022520090468022D2009146196019
:1088200042464946374B384C99508932FF32995865
:108830000C40C02109042143995049461960414622
:1088400058509958314C0C40C0210902214399508D
:1088500061461860A3202E4B2E4AC0005A502E4A63
:108860002E495A502E4919502E481A50A4222E48EB
:10887000D20098502D4A2E481A50043019502D49D4
:1088800010305A50A6222C49D20099502B4A2C491C
:108890005A502C4919502C481A502C4A0C30DA5195
:1088A0002B4A9A511950FF215A512A4A00209950B7
:1088B0000023294AFA3902F009FE00280FD1274A7D
:1088C0000121274802F074FE00222649264802F0C2
:1088D00085FE3CBC90469946A246AB46F8BD0022B8
:1088E000002102F0CBFAEAE7482A00204C2A0020B7
:1088F00000A0004044050000C40900004C05000031
:108900000090004000E100E0FFFF00FFFF00FFFFDC
:1089100000F001404091004000600040140500005C
:108920004C9100401C050000449100400460004050
:10893000240500002C05000040A100400860004014
:10894000340500004CA100403C05000044A100405B
:108950000C60004004050000D02000203586010096
:10896000181902006606000098220020F8B5DE46BD
:1089700057464E4645469346E0B5002A19DD80230A
:108980008A4698467C3B0C0099460427114E124DAE
:10899000DA4443462178EF503378002B10D000237F
:1089A0000E4A33700E4B0134D1504B462B60544568
:1089B000EFD158463CBC90469946A246AB46F8BD1E
:1089C000084800F0ADF84B4601342B605445E0D127
:1089D000EFE7C0466420002000E100E000200040F6
:1089E0001C05000010270020842210B5194B5200EE
:1089F0009958002916D18E23164C5B00E258002AA4
:108A000009D000221448E250183BC35A002B1CD155
:108A10000122124B1A7092220E4B520099580029D3
:108A20000AD110BD00219950A322D20099580C48B8
:108A3000C9B200F075F8DEE7002199509022D2000B
:108A40009958084807F0EAFCEBE700F079F8064B84
:108A5000E050E0E7002000401027002064200020C4
:108A6000FC2500201C1902001C05000010B51E4842
:108A700000F04CF81D4800F049F8A023E72203213C
:108A8000DB05D200995000210E2008329950184B76
:108A9000184AC0249850184A02309850174A18486B
:108AA000A4009850A0200422C0001A508420400046
:108AB000195014301950013199601960C2211E38C3
:108AC0008900FF385850A1200439800058500D4BC0
:108AD0008539FF395A5019590B480840C0210904FB
:108AE000014319511A6010BDFC25002010270020F9
:108AF000002000400C0500001405000024050000C3
:108B000000E0D70100E100E0FFFF00FF802200232A
:108B1000FF21520083520232815202328352704747
:108B200010B58124FF236400025B013213408222CE
:108B300003535200C154835A0133835210BDC046BF
:108B400010B58024FF2103006400025B805C0132C9
:108B50000A401A5305315A5A013A5A5210BDC046BA
:108B6000F0B54746CE46984680B5002A47D0B12397
:108B70000027244E244D254CDB002F702770F05029
:108B8000234831508021890077500121B160297834
:108B90000029FCD00021297080211A488900012A6F
:108BA00024D00125455001211648894601608021C5
:108BB000890043468846FF39A325FF3900268C46A5
:108BC000ED0021780029FCD026704159013AD2B23B
:108BD0001970012A0DD049460162002A01D00133E3
:108BE000EFE700200CBC90469946F0BD02254550A9
:108BF000D9E741466746013347500262E1E7012069
:108C0000F0E7C04600300040B9220020B822002022
:108C10001C050000F0B5002A26D0B1270026134D10
:108C2000134CFF002670E851802080002E50114820
:108C300029500121A96021780029FCD000210020C1
:108C40009A180A4E0B4D2170D1B21A7872512278BF
:108C5000002AFCD00133DAB220709142F5D1012212
:108C60000020024B5A61F0BD0120FCE700300040BB
:108C7000B92200201C050000F8B58423164A5B00C9
:108C8000D158002904D00021D1500122134B1A7071
:108C90008E23114A5B00D158002904D00021D15005
:108CA00001220F4B1A7092250B4C6D006359002B5B
:108CB00000D1F8BD0B4EA759FFF754FDB123DB00DF
:108CC0000200E3583900084807F0A8FB0323A3512A
:108CD00000236351EDE7C04600300040B822002079
:108CE000B9220020C404000030190200A023E221B0
:108CF0001A4ADB05C90010B55A5008395A500421E8
:108D0000174B053AFF3A9950164A023999500022FA
:108D1000CD200731FF315A5014315A501249C00446
:108D20005850C121A1208900800058500539FF39D1
:108D30005A50A022FC39D200FF399950C023082094
:108D4000C024C021094A5B00D050A4001359090671
:108D50001B021B0A0B431351106010BD0C060000D0
:108D6000003000400C0500002405000000E100E098
:108D70008022044BD2009A58002A01D101321A6095
:108D80007047C0460070004080220021054B520011
:108D90009950A122D2009A58D3009B1A024A1380FC
:108DA0007047C046007000401A2800200A4B0B4A4A
:108DB0000B49C0209950A0210122C9005A50FD3909
:108DC000FF395A50074A000653581B021B0A034337
:108DD000535080231360704700700040040500006A
:108DE0000410000000E100E0F0B5C64600B5604C9C
:108DF00082B02578012D32D0002D1CD0022D07D154
:108E0000FFF7B0FC5B4B1B68C01A5B4B984250D815
:108E100032200138C046C046C046C046C046C046A3
:108E2000C046C046C046C046C046C046F1D102B0AA
:108E300004BC9046F0BDB1227721504BD20099502E
:108E400080227539920099504D4A4631995001223D
:108E50009A602270FFF786FC464B1860D8E7FFF750
:108E600081FC444E3368C01A434B9842D0D9454FD9
:108E700003223B0000217720FFF772FE7A783B78CF
:108E800012021B041343BA78772113433E4A582039
:108E90001360B122394BD200995002228A31FF313E
:108EA0005A50374958509D602270FFF75BFC306084
:108EB000AEE7344D03222B0000217720FFF750FE50
:108EC0006A782B7812021B041343AA782F4D1343A0
:108ED0002F4A002113606A89288912029B1A98463A
:108EE0001A00002304F026FD4E06CB110021C20912
:108EF0003243AE88300412184B4100920193002196
:108F0000E8884246002304F015FD0E06020A3243AB
:108F10006E880B12F003002116001F00424636181F
:108F20004F410023A889002104F004FDFA23DB004F
:108F30009C464902C00D0843164B60441860124B12
:108F40003200186800213B0004F0F4FCCD02420D11
:108F50004B152A4300980199121A8B4111005B04AA
:108F6000CA0B1A430C4B1A600023237050E7C0460B
:108F7000C8220020C42200200F270000003000403B
:108F80001C050000BC220020542A0020CC22002016
:108F9000502A0020042700200C27002070B5A024B0
:108FA000094E0A4D2B00022221007720FFF7D8FD41
:108FB0002A786B78120202341343E4B2338002360B
:108FC000B02CEFD170BDC046CC220020C0220020C2
:108FD00076DF70477ADF70477CDF70477FDF70474E
:108FE000A9DF704760DF70472EDF704732DF7047C0
:108FF00033DF70474CDF7047A022802110B5044B4F
:10900000D2054904D1500022002101F037FF10BDE4
:109010000C050000F8B50E00151E08D00024044F02
:10902000315D38000134FFF77BFDAC42F8D3F8BD69
:109030001C28002010B5040003F0B6FA21001F48D8
:1090400003F012FB2388112B2BD010D9132B1AD02D
:10905000522B08D11A4B0022188800210023FFF759
:10906000BFFF002818D1200003F05AF910BD102BC3
:10907000F9D1A0228021134BD2054905D150A288F5
:109080000F4B1A80EFE70E4B002218888521002332
:10909000FFF7A4FF0028E6D00022002101F0EEFE39
:1090A000E1E7A022A1238021D205DB004905D150B0
:1090B0000122034B52421A80D5E7C04624230020E8
:1090C0006C2000200C05000010B50378002B00D0A8
:1090D00010BDA0228021084BC903D205D150074BF7
:1090E0003B211888FFF774FF0028F1D000220021EF
:1090F00001F0C4FEECE7C0460C0500006C20002027
:109100000121024A13784B40137070472429002034
:1091100070B57048A8B0FFF7F9FC6F48FFF7F6FC90
:10912000002348226D49082003F020FC002800D0CD
:10913000A2E01AAC082200212000FFF75BF8012210
:109140002378200093432370FFF74CFF002800D0C2
:10915000BAE0634803F02EFC002800D0AFE0002204
:10916000604B15201A70FFF741FF01211520FFF712
:109170003FFF1520FFF738FF02210320FFF73AFFDA
:10918000112303AE584A3370BF33D2582F331340E4
:109190005649574A200007F05BF9200007F078F99C
:1091A000210082B23000FFF717FF002800D081E0D5
:1091B0000CAD082200212800FFF71CF84D4B2800B9
:1091C0000C93C8235B040D93FFF704FF002800D025
:1091D0006BE0002104222000FFF70CF8464B210031
:1091E00046481A9303F070FA002859D1382200211A
:1091F0002800FEF7FFFF02232B70C0233822DB007C
:10920000002120006B80FEF7F5FF012323823C4BF9
:109210002422002130006361FEF7ECFF0123337349
:10922000402333610023320000932100280002F024
:10923000B5FF00282FD11C2200212000FEF7DAFF05
:10924000304A00236260F0221203A26005221A93C2
:10925000E381013323742C4B200063612B4B227379
:10926000A36103F065F9002810D1032003F03AF858
:10927000002806D128B070BD0022002101F0FEFDBB
:1092800057E70022002101F0F9FDF3E70022002159
:1092900001F0F4FDE9E70022002101F0EFFDCAE74B
:1092A0000022002101F0EAFDA0E70022002101F0E8
:1092B000E5FD8EE70022002101F0E0FD78E70022C5
:1092C000002101F0DBFD4AE70022002101F0D6FD7C
:1092D0003FE7C0461C28002034290020DC22002063
:1092E000359001002429002000100010741902009C
:1092F0006819020006000C001590010024230020CC
:1093000068200020CD0C0000C9900100F98F0100F9
:10931000F0B5DE4657464E4645464023E0B50025AB
:1093200089B006AC25806370774B21006380774B52
:109330000622A380764B0327981D9A4607F064F80F
:10934000A022A378D2059846C133FF339B009F50DB
:10935000E378A1269946C133FF339B009F502079C3
:1093600041460300C133FF339B009D506379F600F3
:109370009B46C133FF339B009F50664BB4469951C7
:109380004E4665495E508846043158500120594682
:1093900006008E4031006646915161785F4E0906A5
:1093A000995124785E4966465C508421A024490086
:1093B000E4005D501851E024E4001751594C175156
:1093C000644610518024A40194515646564C2360A3
:1093D000F77A4646B8409051544A5D5050359D50FA
:1093E0005A58002AFCD0A322D2009A58A0250192F4
:1093F000A122ED05D200A850019A01320192464AFD
:10940000A85000255D500121484A99509D50842262
:10941000404B520099580029FCD000219950A322BA
:10942000D2009B58842202933A4B5200995800294B
:10943000FCD0A321C9005958A0250291A121ED0516
:10944000C9006850029901310291334968500021E6
:109450009950364A0631995003312E4BFF315A58F4
:10946000002AFCD0A322D2009A58A0250392A12260
:10947000ED05D200A850039A842701320392264AB0
:109480007F00A85000225A506021284A214D99504F
:10949000EB59002BFCD0A323DB00EB580493A02353
:1094A000DB059846A1234246DB00D050049B642094
:1094B00001330493FEF7EEFE534601212560DB7A6B
:1094C00042469940144B8420D15000230622EB5190
:1094D000164B4000EA500F4B1A58002AFCD0A3222A
:1094E000D2009B58A0220593A1230120D205DB00C6
:1094F000D150059B0133059309B03CBC9046994679
:10950000A246AB46F0BDC0460B0900001211000098
:1095100044230020004000400C050000240500000A
:109520005405000034070000402300201C05000003
:10953000242330B51E4C83B0E35C002B16D00028EA
:1095400012D16B46D87123680122597C6368187860
:109550006B460733FFF75EFB002826D16B460020E1
:10956000DB79637403B030BD0220EAE7A37A002BF5
:109570001BD000280FD16B46DD1DD8712368012256
:10958000597C636818782B00FFF744FB00280CD146
:109590002B786374E6E7637C002B04D16B46DD1DFA
:1095A00001232B70EAE70020DCE701204042D9E7E5
:1095B0007020002030B5544C83B0A37A002B00D12A
:1095C0009EE06B46DD1D00232B7023680122597C31
:1095D000636818782B00FFF71DFB002800D08FE090
:1095E000236801225979636818782B00FFF712FB72
:1095F000002800D084E02368012219796368187874
:109600002B00FFF707FB002800D079E02268636891
:1096100011792422A25C002A36D00C222A701878F4
:109620000B3A2B00FFF7F6FA002869D13230FEF72B
:1096300031FEC0232B70A37ADB0701D5E0232B700A
:10964000236801221979636818782B00FFF7E2FA82
:10965000002855D1637C002B00D002232B70236897
:109660000122597C636818782B00FFF7D3FA002891
:1096700046D12368287059796368012218782B0035
:10968000FFF7C8FA404239E004222A701878033AFA
:109690002B00FFF7BFFA002832D1A27C4023002A1A
:1096A00006D1A27A3F3B13401F22013B9343603314
:1096B0002B70236801221979636818782B00FFF753
:1096C000A9FA00281CD13230FEF7E4FD637C5A1E53
:1096D00093412B7023680122597C636818782B0012
:1096E000FFF798FA00280BD1230022681033517934
:1096F000626810780122FFF78DFA404203B030BD56
:1097000001204042FAE7C04670200020174A537AF1
:10971000012B22D0002B18D0022B0ED0032B09D105
:1097200010230370D27C20210023002A00D0017076
:109730001800704701235B42FAE708230370D27CCC
:1097400010210023002AF3D0F1E702230370D27C1A
:1097500004210023002AEBD0E9E704230370D27C24
:1097600008210023002AE3D0E1E7C0467020002052
:1097700030B5204C83B0A37A002B37D06B46DD1D6B
:10978000BB2815D861281BD9022302222B70E37A4B
:10979000934213D0236801229978636818782B00CC
:1097A000FFF738FA002821D12B78E37203B030BDDF
:1097B000012301222B70E37A9342EBD10020F5E7DD
:1097C000292805D8132807D9042304222B70DEE7A3
:1097D000032303222B70DAE7092803D90523052286
:1097E0002B70D4E7062306222B70D0E701204042DD
:1097F000DCE7C04670200020F0B5C646242300B543
:109800002A4D82B0EB5C002B42D1AC7A002C45D0C3
:109810000133984304402F7C2C74241A621E944117
:1098200006006442002814D12A7D002A32D06A7CC6
:10983000002A28D107226A4413702B689046597C6D
:109840006B68187813000122FFF7E4F9002811D0A3
:1098500019E06A7C002A12D107326A4413702B681F
:109860009046597C6B68187813000122FFF7D2F9F3
:10987000002804D143461B786B74002E03D0FFF7F9
:1098800099FE00280DD1200002B004BC9046F0BD26
:109890000024F8E70020FFF74BFEF4E701246442C0
:1098A000F1E701242F746442EDE7C04670200020E8
:1098B00070B5060082B0282800D9B1E023235E4CA1
:1098C00001ADE35C00282BD1002B18D02870A37CBD
:1098D0008022002B02D0022302322B702223E35C71
:1098E000002B00D074E023680122D97D63681878CA
:1098F0002B00FFF78FF9002801D12323E054E02348
:10990000DB002B8023680222597D636818782B00C6
:10991000FFF780F9002800D082E0207502B070BD0A
:10992000012B19D030232B70A37CB022002B02D046
:10993000322302322B702223E35C002B46D12368B2
:109940000122D97D636818782B00FFF763F900289E
:1099500002D123230122E25420232B70A37A6268D0
:109960002168012E4ED0052E40D9142E32D9032065
:109970006870002B52D004236846C370E37A042B2E
:109980004CD06B461078897803330122FFF742F9F7
:10999000002848D16B460722DB782168E3726B7898
:1099A0009B0113436268DBB26B701078497D2B001A
:1099B0000222FFF72FF9002832D10823A372073BB8
:1099C00020732375FFF718FF0020A7E72A70B6E77A
:1099D0002A7088E702206870002B05D005236846AE
:1099E000C370E37A052BCCD18723DDE701206870B3
:1099F000002B05D006236846C370E37A062BC0D13E
:109A00004723D1E700206870002B05D00623684665
:109A1000C370E37A062BB4D10723C5E7C723C3E796
:109A2000012040427AE707236A78216892011343B4
:109A3000DBB26268B8E7C0467020002070B53A4CCF
:109A400082B0A37A0600002B6AD02423E35C002BAB
:109A500066D1227D01AD002A2DD0421E272A5AD977
:109A60002322A25C01AD002A17D02B70A37C802298
:109A7000002B02D0022302322B702223E35C002B46
:109A800047D123680122D97D636818782B00FFF73E
:109A9000C1F8002801D12323E054E023DB002B8010
:109AA00023680222597D636818782B00FFF7B2F80B
:109AB000002800D12075FA23311C9B009E4223D838
:109AC0008BB2042B1ED3FA2089B2800003F0CEFDA6
:109AD00023680138287059786368012218782B00B0
:109AE000FFF798F800281BD1FA202978800001316F
:109AF00003F0BCFD80B2E0814008FFF739FE002092
:109B000002B070BD0421DEE7191C8BB2042BDAD23F
:109B1000F8E72A70B5E7C0B2FFF7CAFE0020EFE70A
:109B200001204042ECE7C04670200020F0B5CE4650
:109B3000474680B54A4C83B023680500597D7023A1
:109B40006268034000D180E06B469E1D01233370A4
:109B5000107833000122FFF75DF8002800D07AE08A
:109B6000402233783070934323732A4260D03A20E6
:109B700084463738814601383823392201213B2772
:109B80008046A80604D443463A00337049466346EB
:109B9000E80601D4130031702A0700D4337023681B
:109BA0000122997D636818783300FFF733F80028A5
:109BB00051D108232A009A4320D02323E35C002BB1
:109BC0001CD06B46D871A37C8022002B03D06A4640
:109BD0000223D37182222223E35C002B01D06B4647
:109BE000DA7123680122D97D636818786B460733E0
:109BF000FFF710F8002801D12323E054002332207E
:109C0000A5722375FEF746FB002003B00CBC9046FE
:109C10009946F0BD6B4640279E1D37701078330083
:109C20000122FEF7F7FF002815D13378BB432373D9
:109C30003E200423844637388146013833703D2264
:109C4000383305213F2780469BE70028E2D068464D
:109C5000861D33707CE700230120A3724042D4E7C5
:109C600070200020802370B5724C84B002AD2B7040
:109C700023680122597D636818782B00FEF7CAFF1C
:109C8000061E00D0C3E06420FEF704FB23682E709C
:109C9000597D6368012218782B00FEF7BBFF00286E
:109CA00000D0B4E070232B7023680122D97E636852
:109CB00018782B00FEF7AEFF002800D0B0E0236834
:109CC0000622597E636818782B00FEF749FF0028AA
:109CD00000D09CE004236A790126920013400222FE
:109CE000E97849000A4013436A783240134300D1AF
:109CF00077E0D9B2012B03D0022900D08AE00023FB
:109D0000E37400232B7023680122D97E63681878DE
:109D10002B00FEF77FFF051E00D081E00123A0820B
:109D200020005B42A360E38123740133FF33A374FB
:109D3000FE3B638416300C2200212373FEF75AFA8F
:109D4000A37A6562002B62D06B46DD1D18232B7051
:109D5000237A032B0FD0236801229979636818783E
:109D60002B00FEF757FF002851D12B78DB08237218
:109D7000A37A002B4BD000232B70637A002B0FD0DB
:109D800023680122D979636818782B00FEF742FF17
:109D900000283CD12B78DB086372A37A002B36D0E5
:109DA00005232B70E37A052B0BD0236801229978C9
:109DB000636818782B00FEF72DFF002827D12B7839
:109DC000E372FA208000FFF739FE00281FD1FFF769
:109DD00013FD041E1BD10020FFF7A8FE200004B0D5
:109DE00070BD23680122D978636818782B00FEF7CC
:109DF000B7FE00280BD10F232A78134013D0042B71
:109E000000D07CE70C4806F009FBE67479E70124F2
:109E10006442E3E70124094806F000FB6442DDE701
:109E200003246442DAE70124054806F0F7FA6442A5
:109E3000D4E7C04670200020001A020088190200F2
:109E4000B0190200F0B54746CE46242380B5284C11
:109E500083B0E35C070089469046002B3BD0A37A91
:109E6000002B38D0236801AE197B63680222187872
:109E70003300FEF775FE00282DD1357873782D025A
:109E80001D43BD422AD36368216818785B885B084C
:109E9000AB420CD2C97C33000122FEF761FE0028E0
:109EA00019D13378DB061DD4636821681878FAB2BB
:109EB000497B4B46FEF754FE00280CD139002800A0
:109EC00003F04AFB434601381870002003B00CBC75
:109ED00090469946F0BD01204042F7E7434618708E
:109EE0000138F3E7FFF766FB02204042EEE7C04689
:109EF0007020002070B5384C82B0A37C06008342ED
:109F000060D0636801221878236819796B46DD1DDB
:109F10002B00002E30D0FEF723FE002859D120223E
:109F20002B7893432B7023681F3A1979636818784C
:109F30002B00FEF76FFE00284BD10330FEF7AAF985
:109F400002232B702033E25C1033002A02D05033FE
:109F50002B7030332322A25C002A38D123680122DF
:109F6000D97D636818782B00FEF754FE002830D1A5
:109F70000020A67402B070BDFEF7F2FD002828D1C3
:109F8000A27A2B78D2071FD4202293432B70236808
:109F900001221979636818782B00FEF73BFE002830
:109FA00017D10330FEF776F92223E35C3022002B31
:109FB00001D0B02280232B702323E35C002BCDD073
:109FC0002A70CBE70020D5E720221343DEE72B7071
:109FD000C4E701204042CDE7702000202223024A3E
:109FE000D05400207047C04670200020232370B555
:109FF000174C82B0E35C0500834224D000281DD1B9
:10A0000000218022822002266B4607331970A17C32
:10A01000002901D002001E702221615C002900D0BD
:10A020001A702268D17D626810780122FEF7F2FD75
:10A0300000280AD12323E55402B070BDB022B2201B
:10A0400032263021E0E70020F6E701204042F3E726
:10A050007020002070B50D0082B0161E1FD0114C6C
:10A06000A37A002B1BD042BA01AB1A806268C0B23F
:10A0700040185189884212DC21681078C97E02227A
:10A08000FEF7C8FD00280AD12368EAB2197E63688A
:10A0900018783300FEF7BEFD404202B070BD0120CB
:10A0A0004042FAE770200020F0B5DE4645465746AC
:10A0B0004E46E0B58BB003932523374D00910292B5
:10A0C000EB5C8346002B44D1002942D0002405AF2D
:10A0D00000282DD146E0AB7A002B3AD063BA3B8002
:10A0E00033041B0C98466A680197E3B251894344D4
:10A0F0008B422EDC2B681078D97E02223B00FEF7C3
:10A1000089FD002825D12B68F2B2197E6B6818787A
:10A1100006ABFEF725FD00281BD1424606A9504696
:10A1200006F064F9002833D14C44A4B2A3451AD9EF
:10A130005B461E1B102E00DD1026B3B29946009B15
:10A1400049469A46A24452462000FFF783FF002862
:10A15000C1D0012040420BB03CBC90469946A2467B
:10A16000AB46F0BD0197029B019A5BBA13802B6846
:10A17000597F6B68187813000222FEF74BFD002808
:10A18000E7D125230122EA54039B0020EB84E2E778
:10A1900002204042DFE7C0467020002070B5242630
:10A1A0001F4C82B0A35D0500834234D0002820D02C
:10A1B0002523E35C002B30D00020FFF7B9F9002005
:10A1C000FFF798FEE08CFFF739FC6B46002207335F
:10A1D0001A706268232110780122FEF71BFD01230B
:10A1E0000120A355FFF7A4F9FFF7E4F9002002B01E
:10A1F00070BD0020FFF79CF96B46227C07331A7074
:10A200006268232110780122FEF704FDA555FFF7AF
:10A21000D1F90020EBE70020E9E701204042E6E722
:10A2200070200020802210B5C823D20002490348C4
:10A23000FFF73AFF10BDC046A41A0200F60B00005B
:10A24000F0B5C64600B5404B86B002A90B806C2322
:10A250008B703E4B03AA13802C2393703C4B04AFAE
:10A260003B807623BB703B4B05AE33806623B370D7
:10A27000633B050018006C4628408446085C9846FD
:10A280002070E80818406B460C5C5C704346AC09D3
:10A2900023406C46C95CD35CA1706146515C01AC43
:10A2A0002170115C6A4661702B480321A370FFF78F
:10A2B000D1FE002844D1220003212848FFF7CAFE1E
:10A2C00000283DD103223900684606F09DF803229C
:10A2D0003100200006F098F86B0707D56B46012186
:10A2E0001A780A431A7023780B432370AB0607D5FC
:10A2F0006B4601215A780A435A7063780B436370A6
:10A30000EB0514D488206A460321C000FFF7A2FEA3
:10A31000002815D1220003211148FFF79BFE0028D9
:10A320000ED1104B1D8106B004BC9046F0BD6B46AB
:10A3300001219A780A439A70A3780B43A370E1E74E
:10A3400001204042EFE7C0464CCDFFFF0CC9FFFFA4
:10A350003656000026460000260400002A040000AD
:10A36000310400005023002070B586B003AC2200F9
:10A37000114B050043CB43C2C82D1AD8002301AEB0
:10A380002900C820337003F071F901387070320071
:10A3900002210A48FFF75EFE00280AD122000C21A4
:10A3A0000748FFF757FE002803D1064B9D8106B0F2
:10A3B00070BD01204042FAE7681A02001602000050
:10A3C000C10A000050230020F0B5040083B0430709
:10A3D0005FD0C823DB0099425BD8080004F06AF91B
:10A3E000504903F065FC6B46DD1C071C2800FFF795
:10A3F0008DF92B78042B00D184E021D9082B00D1D2
:10A4000070E0102B45D18A21381CC90503F02CFEC1
:10A4100003F0BAFA444986B2381C03F025FE03F073
:10A42000B3FA80B201AD76BA40BA2E806880E307F5
:10A430001ED4A30730D4630741D4002003B0F0BD7D
:10A44000022B26D18D21381CC90503F00DFE03F027
:10A450009BFA364986B2381C03F006FE03F094FAE4
:10A4600080B201AD76BA40BA2E806880E307E0D5AD
:10A47000EA202A0002214000FFF7ECFD002808D165
:10A480006B4625309A1D0221FF30FFF7E3FD0028BF
:10A49000CFD001204042D1E7EC202A000221400029
:10A4A000FFF7D8FD0028F4D16B4629309A1D022110
:10A4B000FF30FFF7CFFD0028EBD16307BDD5EE20BD
:10A4C0002A0002214000FFF7C5FD0028E1D16B46BC
:10A4D0002D309A1D0221FF30FFF7BCFD431E98412D
:10A4E0004042ABE78B21381CC90503F0BDFD03F0EA
:10A4F0004BFA0F4986B2381C03F0B6FD03F044FA5C
:10A5000080B28FE78C21381CC90503F0ADFD03F044
:10A510003BFA084986B2381C03F0A6FD03F034FA72
:10A5200080B27FE7000048430000C044000040467E
:10A53000000040450000C045F0B54646D6464F46AF
:10A54000C0B586B08F4B03AC060022000421682002
:10A550000393FFF77FFD4022A323324023709046F0
:10A5600000D1F6E0C0271D336370874B7F00638006
:10A57000374000D1F5E0854BA380C623A371A32308
:10A58000E371834B220023810A218248FFF762FD99
:10A590000323334099465A4253415A42B823134049
:10A5A0002033220001217C4823706D46FFF752FDC5
:10A5B000B30600D4DAE0794B0C332A0003CB03C294
:10A5C00097201B7809211370C0002A00FFF742FD75
:10A5D000002F00D09BE0F30700D4A4E08B20F823E9
:10A5E0002200012100012370FFF734FDFA2107202A
:10A5F000FFF7EAFEA4203F232A00012140002B7030
:10A60000FFF728FD502000232A000121FF302B7086
:10A61000FFF720FDA023EF205B012B802A00022101
:10A620004000FFF717FDC823ED20DB012B802A0037
:10A6300002214000FFF70EFDAE20594B2A000421F5
:10A6400040000093FFF706FD8023AD201B012B8007
:10A650002A0002214000FFF7FDFC8023AC209B0074
:10A660002B802A0002214000FFF7F4FCB307DB0F28
:10A67000D833220001214B482370FFF7EBFC73070E
:10A6800000D476E0484B00932A0004214748FFF7A6
:10A69000E1FCFEF78FFFF30636D40422A321280045
:10A6A000FDF7A8FD2A0004214148FFF7D3FCFEF77F
:10A6B00081FF08233F4C33436381FEF77BFF434612
:10A6C000002B39D10A2084460C30824610381422DF
:10A6D00010211A258046A3730433002F04D043466B
:10A6E0002A00A373514663461420304201D0130060
:10A6F000A1734A46002A00D0A373002006B01CBCF8
:10A7000090469946A246F0BD2B4B0093CAE7F3054D
:10A7100035D52A4B0393220004212948FFF79AFCE0
:10A72000F30700D55AE78B20D8232200012100012E
:10A730002370FFF78FFC99E71020062384460C3026
:10A7400082461038A3731A2204331621202580462E
:10A75000C3E7C02763700E4B7F006380374000D093
:10A7600009E70B4BA380A323A37108E70B4B183316
:10A7700023E704228B212800FDF73CFD84E7114BE1
:10A780000393C8E702CAE309C8C2FFFFC4CCFFFFB6
:10A79000A3A3FFFFA70A0000B60A0000681A020080
:10A7A000008EF9903D070000C0C2C4C6980A0000A0
:10A7B0009E0A00005023002020283038B28BB69B20
:10A7C000A20A0000B080B490F0B55746DE464E466F
:10A7D00045460023E0B591B01A9C06002380814BCA
:10A7E0000F00987B924608A91B9AFFF72BFB03B238
:10A7F00098462380181E7AD114227A4B5B891A421C
:10A8000000D07BE00325AC46013DA846013DA946AA
:10A8100000250C2100220420AA4607910139069147
:10A8200001390591013904910139039101399346A8
:10A830000291063201390191009201395D062DD550
:10A84000524608ADAA5C120292462A004D46525D5D
:10A85000554615433D80454608AA525D654612029D
:10A86000904608AA525D4546154308AA515C105C03
:10A87000009A00029346079A08430092049AB8800F
:10A880009446039A08209046029A7D809146019A48
:10A89000218892460143218005980699C0277F00B0
:10A8A0003B4221D0554608AA575D4D463A02924692
:10A8B00008AA575D52464546174308AA3780575D98
:10A8C00065463A02904608AA575D4246174308AAD1
:10A8D000105C515C00020143009A7020934677801F
:10A8E000B1802188014321809B0754D1002011B001
:10A8F0003CBC90469946A246AB46F0BD51465046F8
:10A90000089A12BA0A600999121409BA41600A98A1
:10A91000091400BA844689466146524309146546C3
:10A920008C4611004A4652438918624650465243AB
:10A930008A18F1218560554609068C4680210B98BE
:10A94000890400BAE86000144043121862448A4245
:10A9500040D88022218852000A4322801022934648
:10A960000632009206320792013A0692013A0592A7
:10A97000013A0492013A0392013A0292013A019299
:10A98000033A9446013A9046013A9146013A15211C
:10A990001420924652E708AB9C465C4664446378B8
:10A9A000E678DA070BD50F4A1268002A07D007208D
:10A9B0000100F308314018400131904763781B07CC
:10A9C00094D5084B5B68002B00D18FE7B0099847FE
:10A9D00000208CE7FEF7EEFD434601202380404235
:10A9E00085E7C046502300200023F0B5C356002B56
:10A9F00011DD382320249C460821102528273026E5
:10AA0000002303228256002A17DD06228256002ADE
:10AA100025DD98B2F0BD002B4ED10123C356002B8B
:10AA200027DD0322392382569C4621240921112542
:10AA300029273126383B002AE7DC002A35D10422B9
:10AA400082560B00002AE0DC5FD1052282562B00E3
:10AA5000002ADADC3300002AD7D16346D5E7002A82
:10AA600025D107228256002A13DD402003431BB262
:10AA7000CFE7002B4BD10223C356002B33DC24D16C
:10AA80003F339C4627240F2117252F273726383B95
:10AA9000B7E7002A34D108228256002A2CDC1DD1C7
:10AAA000E020400003431BB2B3E72300ADE7802062
:10AAB000400003431BB2ACE73C2324249C460C21FA
:10AAC00014252C273426383B9BE73E2326249C461E
:10AAD0000E2116252E273626383B92E7C02040004F
:10AAE00003431BB295E73A2322249C460A211225F0
:10AAF0002A273226383B84E7802003431BB288E7AD
:10AB0000A020400003431BB283E73B007DE73D23C9
:10AB100025249C460D2115252D273526383B70E729
:10AB2000F0B5DE4657464E464546E0B5050085B0D1
:10AB3000006803F075FDC221890503F095FA041C35
:10AB4000686803F06DFDC221890503F08DFA804627
:10AB5000A86803F065FDC221890503F085FA8146E6
:10AB6000E86803F05DFDC221890503F07DFA211C30
:10AB7000051C201C03F078FA4146071C404603F0F0
:10AB800073FA49468246484603F06EFA291C009043
:10AB9000281C03F069FA5146061C381C03F07AFBA6
:10ABA000009903F077FB311C019602F005FF05F0D8
:10ABB000A7FB02900391291C484603F055FA414631
:10ABC0008346201C03F050FA011C584602F0F4FEA4
:10ABD00005F096FB02000B0003F0ACFD029A039B0C
:10ABE00001F098FF0022304B04F018FD05F052FBF5
:10ABF0002E4B291C1880404603F036FA49468346FE
:10AC0000201C03F031FA011C584603F043FB05F009
:10AC100077FBC02300221B0604F000FD01F01CFF9F
:10AC200080268B46844636065E44604600221E4BD4
:10AC3000310004F0F3FC05F02DFB1D4B514618804C
:10AC4000381C02F0B9FE009903F024FB019903F0CF
:10AC500021FB05F055FB06000F004046494603F076
:10AC600003FA291C8046201C03F0FEF9011C404613
:10AC700002F0A2FE05F044FB02000B0003F05AFDB7
:10AC800032003B0001F046FF0022074B04F0C6FCF7
:10AC900005F000FB074B188005B03CBC9046994678
:10ACA000A246AB46F0BDC046005FC440022700206C
:10ACB00008270020F625002000B51C4B8DB001931D
:10ACC0000E236B44009306A9002308AA04A8FFF7EB
:10ACD0007BFD41B2002924D108A8FFF721FF6B4674
:10ACE0007022DB891A420FD11B070BD56B461A8BDA
:10ACF0000F4B1A806B465A8B0E4B1A806B469A8B01
:10AD00000D4B1A800DB000BD6A46118A0B4A1180A6
:10AD10006A46518A0A4A11806A46918A094A118014
:10AD2000E2E7094805F07AFBECE7C046F825002089
:10AD300016280020F4250020FA25002022290020D2
:10AD400018280020442A00209C260200A022A223CA
:10AD5000D205DB00D3589B0605D4044B1878431E5C
:10AD60009841C0B270470120FCE7C046F82500209A
:10AD700070B5050082B000200E00FEF773FF0100E1
:10AD8000324805F04BFB7820FEF7D0FE010030483A
:10AD900005F044FB7820FEF72FFD01002D4805F05B
:10ADA0003DFB0020FFF71AF90120FFF71FF9002DE6
:10ADB0002DD0FFF737FA0100274805F02FFB274871
:10ADC000FFF712FEFFF73CFA0100254805F026FBCD
:10ADD0007220FF30FFF7B0FB0100224805F01EFB98
:10ADE0006420FFF7C1FA01001F4805F017FB01209E
:10ADF000FFF7D4F901001D4805F010FB0A20FEF70B
:10AE0000B7FC01001A4805F009FB02B070BD6B46A3
:10AE1000DC1D0122DD711A2123006820FDF7FAFEF6
:10AE20000100144805F0FAFAFA203100400102F05E
:10AE30001DFC013820702300012219216820FDF734
:10AE4000E9FE01000C4805F0E9FADEE7BC26020045
:10AE5000D4260200EC260200042702009C200020D9
:10AE60001C270200342702004C270200642702003E
:10AE70007C27020094270200AC27020010B50B00CB
:10AE800001000B4805F0CAFAA022A1238021FA2074
:10AE9000D205DB00C900D150C000FDF7FBF9BFF3BC
:10AEA0004F8F044B044ADA60BFF34F8FFEE7C04672
:10AEB000C427020000ED00E00400FA058021802391
:10AEC000184A8902D1508022D221174B52028900A0
:10AED0005A5040395A5001222F205A600138C0463A
:10AEE000C046C046C046C046C046C046C046C04632
:10AEF000C046C046C046F1D19A6000230B4A2F20BD
:10AF000013600138C046C046C046C046C046C04671
:10AF1000C046C046C046C046C046C046F1D1044AFD
:10AF20001370704700E100E000100140742300201E
:10AF300065230020A021F0B50023C6462C4A490015
:10AF400000B5535004315350043153500431535021
:10AF50004C39535004315350264B1B68002B37D0CB
:10AF6000254900255458254A254F1268A41A002265
:10AF70002402240A904602E0002E1AD033001A68F8
:10AF8000A24216D8A41AAD181A7CDE69002AF3D0A2
:10AF9000424699691A745A693B68002B1BD010000D
:10AFA00098470028E8D000220021FFF767FF002E15
:10AFB000E4D11449144A0B7812789A420ED0134AFD
:10AFC0009B009D5080218023114A5B004903D15092
:10AFD00004BC9046F0BD08009047CDE70132D3B2E3
:10AFE000022B01D00B70EAE700230B70E7E7C046A5
:10AFF000001001407C230020040500007423002081
:10B00000602300207123002070230020682300208B
:10B0100000E100E0F0B54E46DE4657464546E0B555
:10B02000B24BB34A9946B3491B688DB00393097874
:10B030001378994200D1C1E10133DBB2022B00D178
:10B0400028E11370AC4A9B009B584A469C46039BE0
:10B0500063441B021B0A0793136001230A93A74B47
:10B060001968A74B1B789B46A64B5C461A68A64BF3
:10B07000049218785B46013BDBB20B900993002CDD
:10B0800000D1A1E1DB009846079B424402930023D4
:10B0900015000A00019306939C4B059008932878AD
:10B0A0006F78B8421FD03E006B68440024189A465F
:10B0B0000130AB78C0B21B1A5F1EBB41E4005B429B
:10B0C000544418402378022B14D0032B09D1002AB2
:10B0D00007D000231374D269002AFAD101236E78B5
:10B0E0000193B042E0D12B000498083BA84238D02D
:10B0F0001D00D4E76368002AF3D093421CD01400EB
:10B1000000E03C00E769002FEBD0BB42F9D1A3423D
:10B110000AD0FB693E68E361002B03D01C68A2469D
:10B1200056441E606E78DCE7D269002A0DD00124F7
:10B130001E68DB610194F1E7D36914001700002B4E
:10B1400003D01A0001230193E3E70122089B9A60D0
:10B1500001230193002302930133002206930593F8
:10B16000D7E7069B002B00D137E1674B0598187095
:10B170004B4602981860019B002B00D191E15F4B78
:10B18000891A1A604B1E9941CBB201930A9B002B7E
:10B1900000D08DE10027049B1400434418000023D5
:10B1A000904603933A1E2DD0936851689C46130035
:10B1B000D269029D564E4D1B2D022D0AB54254D820
:10B1C000290000260125614419605E609E601D749F
:10B1D000DE61002C5AD02768A3468C468F427AD273
:10B1E0006146C91B8A465946CD69002D5DD1AC46E2
:10B1F000514619606146D9615946CB6123001C0054
:10B20000002AD1D19446437801788B4246D0827887
:10B2100047684D006D180131ED00C9B27D1901700C
:10B22000914202D10021017000212E78012E33D1EC
:10B230006E68B246367C002E2ED15346A968370080
:10B240005960EE6862469E60B4462E69DE606D69A4
:10B250009D61059D002DACD00021029D2C4E4D1B03
:10B260002D025F602D0AB542AAD9029D691A090212
:10B27000090A614524D265460026691A012519602C
:10B280005E609E601D74DE61002CA4D101211C0053
:10B290000391B5E70023D4E68B42BAD10300049AA8
:10B2A000083B824236D01800ADE72968514519D3D2
:10B2B0006646AC460D00ED19A91B6546296097E767
:10B2C000002501211D605D609D601974DD61002C09
:10B2D000DCD000212768791A21600121DC6103910B
:10B2E0001C008DE7AB46D4460F0079E7742300209D
:10B2F0007023002071230020682300207C2300207D
:10B3000078230020802300206423002000100140C7
:10B31000FEFF7F00039B4246002B00D15AE0654BA5
:10B320001C60944202D1019B002B3DD0002C00D127
:10B330007AE0614A6148236881584A461468604D42
:10B340000A1B12022E78120A0332A946002E49D097
:10B35000934200D213001B19A82458481B021B0A51
:10B36000E400554D035142595B1A521A1202120A57
:10B370001B0203321B0A9A4216D9435903512F204C
:10B380000138C046C046C046C046C046C046C0465A
:10B39000C046C046C046C046C046F1D18023802189
:10B3A000484A5B008902D1500023474A13700DB010
:10B3B0003CBC90469946A246AB46F0BD039B079322
:10B3C00000239C460A934AE60A9B002B2FD10A00D1
:10B3D0000A9B0193374B1C68A3E70B9B0593079BC4
:10B3E0000293C8E68026D1277602BF00C651403FAF
:10B3F000C6518027C026334DBF027600AF510126CB
:10B400002F6006602F200138C046C046C046C046A7
:10B41000C046C046C046C046C046C046C046C046FC
:10B42000F1D14846067093E7FFF748FDBCE7079B5C
:10B4300005900293002936D00B689C4535D3002730
:10B4400000200025664603E013681100B3421CD8B3
:10B45000CC68F61AC0180D60CA69002C07D0CF61FD
:10B460000F00039B8C601B181B021B0A4B60002AF9
:10B47000EAD1104B1A6000225B46002B0DD001234D
:10B480000193099BDB00984685E60A49B4460A60A9
:10B49000110060461B1A0B60EEE7012311000A93AE
:10B4A00095E70A0072E60027E5E70A000027F0E7C3
:10B4B0001100BFE77C2300200405000000100140BC
:10B4C0006523002000E100E064230020F8B5CE46AB
:10B4D0009946032347461D0080B506000F0014005F
:10B4E0009846154047D1002A47D0FFF7E7FC4A4667
:10B4F000244B00211A604246234BC5201A70234B6F
:10B500007A001C602300D219D200183363609B18A4
:10B51000E3609B1863611E4BC0221D601D4B25809C
:10B5200019701D4BA770197080212581A772258283
:10B53000A774FF24194B49035200995080001A58F0
:10B54000A2433F3C22431A50A122C4241448D200F3
:10B550001960A40086501A5912491140C0221202E3
:10B560000A431A51104BC2580020104B1A600CBCF1
:10B5700090469946F8BD0720F9E7044B07201A606A
:10B58000F5E7C046602300207823002080230020B8
:10B590007C230020702300207123002000E100E0C4
:10B5A00000100140FF00FFFF04050000742300208D
:10B5B000094B1B68002B0AD0002A0AD0002808D0AB
:10B5C0000368187C002802D159745A61704708201A
:10B5D000FCE70720FAE7C04680230020F0B5C64606
:10B5E00000B5364B1B68002B53D0002851D00429DE
:10B5F00060D94469002C4CD0447C012C4BD00024F1
:10B60000A4462F4C6468E405E40D17D003252E00F2
:10B61000103C67B2E4B22640F600002F3DDBBF08C5
:10B62000C037284CBF003C59F440A4092540EDB276
:10B63000012D04D0032D01D1083300E010335E78D2
:10B640009D78771CFFB2ED1B6C1EA5411C786D42E6
:10B650002F40BC4230D05D687400A846A419E400B5
:10B660004444002C28D00125606025701648174DF1
:10B670002858E1606146A0602161626180215F70AD
:10B68000802300200F4A5B004903D15004BC904640
:10B69000F0BD0820FAE78C46B3E70F273C400C4F7B
:10B6A000083CB846A408A40044446468F440A409D3
:10B6B0002540BCE70720E9E70420E7E780230020D6
:10B6C00000ED00E000E100E0040500000010014092
:10B6D00018ED00E030B52D4B1B68002B44D000283E
:10B6E00042D04269002A3FD000220274284A5268A0
:10B6F000D205D20D20D110335C789A78611CC9B282
:10B70000521A551EAA41524211401A788A423AD022
:10B71000620012195C68D200A4466244002A32D04A
:10B720000224506014705970802380210020194A2F
:10B730005B004903D15030BD03210D00103A54B2D3
:10B74000D2B21540ED00002C10DBA408C034114A21
:10B75000A400A258EA4092091140C9B20129CBD0F5
:10B760000329C8D10833C7E70820E4E70F242240A3
:10B77000094C083AA4469208920062445268EA4092
:10B7800092091140E9E70420D5E7C0468023002054
:10B7900000ED00E000E100E018ED00E0074B1B6861
:10B7A0005B0706D5002806D0054B5B7803600020B8
:10B7B00070470820FCE70E20FAE7C046502400201E
:10B7C0008423002071DF704772DF704779DF704794
:10B7D0007DDF704765DF7047F0B557464E464546FA
:10B7E000DE46E0B587B0984612AB1B88119F0193E7
:10B7F0003B888146039303888A460292002B5DD0E2
:10B8000000239B4604AB0024DD1C04E04B461B8850
:10B8100001349C422FDA53461B68A1009C46042247
:10B82000614405A804F0F0FD0022290005A8FFF7F7
:10B83000D1FF061E2BD12B784345E7D1434659460D
:10B840003A88D31800292AD00199994238DB109BF5
:10B8500029009C4605A86244FFF7BCFF002831D1AF
:10B860003A882B7801349B183B8001239B464B463A
:10B870001B889C42CFDB5B46002B1FD03B88039A82
:10B88000013B9B1A9BB2FF2B1AD810998B543000A6
:10B8900007B03CBC90469946A246AB46F0BD019924
:10B8A000023399420CDB0132109B029992B23A802A
:10B8B00099543A88013292B23A80C8E70026E6E706
:10B8C0000C26E4E70600E2E7F0B557464E4645464B
:10B8D000DE460023E0B517881380436B87B006006F
:10B8E0000D001400002B00D17EE1022F00D83AE1B8
:10B8F0001A7802230B701121238801339BB2238015
:10B90000E954238801339BB22380EA54238801330E
:10B910009BB22380326B002A00D170E019001231F3
:10B92000B94200D91FE11121E954238801390133BB
:10B930009BB22380E954238801339BB22380D17BBF
:10B94000E954238801339BB22380917BE9542388F7
:10B9500001339BB22380517BE954238801339BB28E
:10B960002380117BE954238801339BB22380D17A51
:10B97000E954238801339BB22380917AE9542388C8
:10B9800001339BB22380517AE954238801339BB25F
:10B990002380117AE954238801339BB22380D17923
:10B9A000E954238801339BB223809179E954238899
:10B9B00001339BB223805179E954238801339BB230
:10B9C00023801179E954238801339BB22380D178F5
:10B9D000E954238801339BB223809178E95423886A
:10B9E00001339BB223805178E954238801339BB201
:10B9F00023801278EA54238801339BB223802E22BD
:10BA0000B25C002A00D0CBE02D22B25C002A00D02C
:10BA1000A6E0B278002A00D0E8E0F278002A00D050
:10BA2000A9E07268002A15D0D91CB94200D99AE061
:10BA300002211278E9542388083101339BB2238014
:10BA4000E954238852B201339BB22380EA542388FD
:10BA5000013323803389002B00D01AE1338A002B75
:10BA600000D035E1338B002B00D050E1336A002B3E
:10BA700043D0228891460632BA4200D973E01A8830
:10BA8000052A00D8FEE0B149B148511889B2844670
:10BA9000814200D8F6E05988052900D8F2E0AB4889
:10BAA00080468844404680B2604500D8EAE0A94814
:10BAB000824204D0814202D08A4200D9E2E00522CB
:10BAC00049466A5412212288013292B22280A95436
:10BAD0002288013292B222801988AA181170090AAC
:10BAE00051702288023292B222805988AA181170AD
:10BAF000090A5170238802332380736A9846002B09
:10BB000023D09A882088911C831C5B18BB422AD8BA
:10BB1000FE2928D803322A54FF22238801339BB2FE
:10BB20002380EA544246238801339BB22380128843
:10BB3000EB181A70120A5A7043462088023080B2FD
:10BB400020809A88002A00D082E12C23F35C002B0D
:10BB500000D001E13378002B00D08FE0002003E01B
:10BB60000933BB4262D90C2007B03CBC90469946D1
:10BB7000A246AB46F0BDD91CB942F4D80221E95423
:10BB80002388013901339BB22380E9542388013390
:10BB90009BB22380EA54238801339BB2238040E781
:10BBA000D91CB942DFD802211C20E9542388013373
:10BBB0009BB22380E854238801339BB22380022A5E
:10BBC00000D15CE160D9032A00D156E1042A59D1A1
:10BBD0000322EA542D22238801339BB22380B25CD6
:10BBE000002A00D115E7BBE7002393E60433BB42EC
:10BBF000B9D804A8FFF7EAFD0028B5D103222388AD
:10BC0000EA542388163201339BB22380EA546A46F1
:10BC10002388128A01339BB22380EB181A70120A10
:10BC20005A70238802339BB22380F6E604A8FFF7FC
:10BC3000C9FD002800D097E7082211212388694414
:10BC4000EA542388133201339BB22380EA542088BC
:10BC5000153A013080B22080281804F0D5FB6A46DE
:10BC60002388127C06339BB22380002A00D0FCE09C
:10BC7000EA54238801339BB22380CAE63288012A22
:10BC800000D0B6E007206FE7012AFBD10022EA547A
:10BC9000A0E70823984604339946B044B14402977C
:10BCA000019400950A3B022249464046FFF794FD65
:10BCB000002800D058E7029701940095102306222F
:10BCC00049464046FFF788FD002800D1C6E64BE70D
:10BCD0001023984604339946B044B1440297019426
:10BCE0000095123B032249464046FFF775FD0028A8
:10BCF00000D039E7029701940095102307224946A6
:10BD00004046FFF769FD002800D1ABE62CE7182379
:10BD1000984604339946B044B14402970194009583
:10BD20001A3B142249464046FFF756FD002800D032
:10BD30001AE70297019400951023152249464046C0
:10BD4000FFF74AFD002800D190E60DE77FF3FFFFE3
:10BD50007DF30000FFFF0000B36A9846002B91D0EE
:10BD60009B880233FE2B00D9FDE600229146163255
:10BD70009246163293462088524601332B5423882C
:10BD800001339BB22380EA544246238801339BB29D
:10BD900023801288EB181A70120A5A7043462088C2
:10BDA000023080B220809A88002A0CD0996800293D
:10BDB00000D167E7281804F027FB434620889B88BA
:10BDC000C01880B220804B460133DBB299465B46F7
:10BDD000F35C4B4500D8BDE64B46B26A5B0090462B
:10BDE0004B449B00984443469B880233FE2BC3D9A7
:10BDF000B9E62288901CB84200D9B4E6012B05D1DF
:10BE0000737802339B189F4200D2ACE66B46023F28
:10BE1000BF1ABFB2281804A91F82FFF7D9FC002857
:10BE200000D0A1E63378022B2CD0012B1FD00822A2
:10BE3000FE2F00D997E62388791CE9542388013323
:10BE40009BB22380EA5423880133FF1827808BE6B6
:10BE50009968002900D115E7281804F0D5FA424660
:10BE6000238892889B1823806FE6012200E773786D
:10BE70009F42DCD31F000822DAE7E954AAE6012238
:10BE8000EA54A7E66B461B8A9F42D0D31F000922C3
:10BE9000CEE7C04630B593B01F236A460C009380AE
:10BEA000D380002820D0C3785B0726D501AA02A939
:10BEB000FFF70AFD002815D102AD002C18D0E37859
:10BEC000002B1AD16B460AA99A1D2000FFF7FCFC33
:10BED000002807D16B469B790AAA69462800097990
:10BEE000FFF772FC13B030BD90800025002CE6D126
:10BEF0006B460022DC800023EFE70720F2E7C04614
:10BF000073DF7047F0B59B4D87B0072200212800F2
:10BF1000FCF770F9984C994E6378002B37D0984F06
:10BF200033783A68012B00D1F7E0A178002900D1DD
:10BF3000FDE0022B36D1002A00D0F0E0914B1A70C0
:10BF40000022A378002B11D06B78002B3AD1AB786C
:10BF5000002B37D1EB78002B34D12B79002B31D14A
:10BF60006B79002B2ED1AB79002B2BD103233370AF
:10BF7000237B002B00D093E004233370237E002B1F
:10BF800000D08DE00023804A337013701AE07C4F9C
:10BF9000A17833783A6800293AD1012B00D193E097
:10BFA000022BCED0217B002901D1032BE4D0217EAE
:10BFB000002901D1042BE5D0002A03D0033B012B3B
:10BFC00000D870E00022714B1A70182200216846D8
:10BFD000FCF710F900226B461A701A72337801923E
:10BFE0000392022B00D18DE01CD9032B30D0042BFF
:10BFF0004FD16946E2690A82226A4A8264490A7913
:10C00000087B024300D09AE004225F4B1A7011E0D3
:10C01000022B90D0012BC5D102233370A378002BC3
:10C0200092D1A3E7012B34D169460492564A019577
:10C030000B7013706846FFF763FF002806D13B685A
:10C04000002B2BD0504A10789847002007B0F0BD45
:10C050006A4663695382236913824D4A1379117BBF
:10C060000B4368D02378002B65D04A4B1B78002BFC
:10C0700061D16946023348480B72023300210392B2
:10C08000C370FFF707FF0028E0D105223E4B1A706E
:10C090003378002BCED13B68002BD3D10020D5E7DD
:10C0A000002A00D18EE72378002B00D18AE7394B94
:10C0B0001B78002B00D085E70121344B0720197035
:10C0C000904782E72F4B1A706378002BA4D06B78CF
:10C0D000002B00D076E7AB78002B00D072E7EB782E
:10C0E000002B00D06EE72B79002B00D06AE76B792C
:10C0F000002B00D066E7AB79002B00D062E702236B
:10C1000033708BE7694601220A70A26801954A8262
:10C1100062680A821C4A13708CE7002AD2D001217F
:10C12000184B0820197090473A68337835E7022B8E
:10C1300000D037E71AE70322134B1A707AE7227808
:10C14000002A00D160E7134A1278002A00D05BE78A
:10C15000684602320272104803910021C370FFF753
:10C1600099FE002800D071E70622074B1A70337839
:10C170008FE7C046F02400205824002055240020DA
:10C18000BC240020EC240020542400203C25002066
:10C190002C2500203D2500207C240020F8B504003B
:10C1A0000E00002800D17DE0002A00D17AE00020B6
:10C1B0003D4908703D490B6006993D4B19603D496A
:10C1C0000B0023CA23C323CA23C323CA23C30722C2
:10C1D00000213948FCF70EF8384B394A394D1A60BE
:10C1E000394A00219A6028003822FCF703F82378A6
:10C1F00022002B70A3781032AB70E378EB70637879
:10C200006B702B00103303CA03C32B00103A0833A2
:10C2100003CA03C32B000832183303CA03C3636A7B
:10C22000002B11D0294B2A4F6B62616A9F600A88EC
:10C230001A8088889880002806D000238A68D25CFB
:10C24000FA5401338342F9D3A36A002B14D0214B53
:10C25000214FAB62A16A9F60888898800A881A8003
:10C26000002806D000238A68D25CFA540133834246
:10C27000F9D32C23E25CEA54236A002B06D0174B37
:10C280002B62226A5188598012881A806368002BB9
:10C2900003D0134B6B6063686B6031002800FFF7BD
:10C2A000F9FDF8BD0E20FCE755240020BC24002039
:10C2B000B824002058240020F02400202C25002041
:10C2C000402500207C24002060250020E024002060
:10C2D000C0240020F824002004250020242500206C
:10C2E0002825002010B500240B4B82B0187001A83F
:10C2F0000194FFF753FA082809D0002805D1019BC3
:10C30000002B05D00122054B1A7002B010BD01941C
:10C31000FFF7F8FDF9E7C04655240020B4240020BB
:10C3200030B5038883B0112B05D0192B20D0102BEA
:10C330001AD003B030BD0024324B1C70324B8288BF
:10C340001B889A42F5D10125304B01A81D7001943C
:10C35000FFF724FA082832D0002835D1019B002BA2
:10C360002ED02B4B1D70E4E78288274B1A80E0E724
:10C370008579002DDDD1254B1C78022C2CD00CD9D1
:10C38000032C3AD0042CD4D1224B1D70224B1B68B5
:10C39000002BCED000209847CBE7012CC9D1022238
:10C3A00001A81A700195FFF7F9F9082812D00028A2
:10C3B0000AD1019B002B03D0154B1C70B9E70194E7
:10C3C000FFF7A0FD0028B4D0144B1B68002BB0D0A1
:10C3D0009847AEE70195F3E7032201A81A7001958B
:10C3E000FFF7DCF90828F5D00028EDD1019B002BE0
:10C3F000E6D00122064B1A709BE7064A147004220D
:10C40000EBE7C0463D250020A62000205524002053
:10C41000B424002054240020BC240020B824002090
:10C4200075DF704776DF70477ADF70477BDF7047D4
:10C4300010B5184B82B01888174B984214D0174A81
:10C44000174C13780133DBB21370217B99420DD264
:10C4500000231370237C002B12D16369002B03D0BF
:10C46000002201A80270984702B010BD0D49FFF7E5
:10C47000D7FF0028F8D0A369002BF5D09847F3E741
:10C480003B21FFF7CFFF0028E7D0A369002BE4D0C2
:10C490009847E2E782250020FFFF0000D02500201A
:10C4A00084250020C825002030B51B4B1B4A5B8823
:10C4B000118883B099420CD852889A4209D3184BFC
:10C4C0005B69002B03D0012201A802709847154C2C
:10C4D0000BE0144C2378002B0BD0114B5B69002B25
:10C4E00003D0002201A8027098470023237003B0F4
:10C4F00030BD0D4B0A4D1B78002B0BD0A9680022D4
:10C500000A48FFF76BF80028EFD0AB69002BECD09E
:10C510009847EAE76968F2E7C0250020C8250020AF
:10C520008425002080250020D0250020A025002083
:10C53000164902000B0070B532CA32C332CA32C388
:10C5400012681A600022124B01681A70002916D076
:10C55000104C0832200003F057FF2000FFF764FF63
:10C5600000280BD101220C4B52421A8000220B4BA7
:10C5700000211A700A480B4AFFF71AF870BD0548E7
:10C58000FFF754FF0028EDD0F8E7C04684250020CF
:10C5900080250020C825002082250020D0250020ED
:10C5A000EC27020031C4010010B50388112B27D0FD
:10C5B00009D9122B1CD0502B04D1234CC288E389FB
:10C5C0009A422FD010BD102BFCD1010082881F4B46
:10C5D00016311A801E48082203F016FF00221D4B58
:10C5E0001A70194BDB89002BECD1FFF75DFFE9E7EF
:10C5F000811D0822164803F007FFFFF755FFE1E70A
:10C600000122124B52421A800022124B12481A7019
:10C61000FFF760F80028D5D00B4B9B69002BD1D0D9
:10C620009847CFE7C38B022BCCD11E33C35CDB070B
:10C63000DBD40948FFF74EF80028C3D0A369002BCC
:10C64000C0D09847BEE7C046842500208225002040
:10C65000C0250020D0250020A0250020A0DF7047A5
:10C66000A2DF704763DF704710B5002808D00029AB
:10C6700006D00B88112B15D0502B05D0102B00D0D5
:10C6800010BD8B888382FBE7CB88028A9A420DD04B
:10C6900082889A42F4D18369002BF1D0CA8B203171
:10C6A0009847EDE701235B428382E9E7CA8B022AC0
:10C6B000EED12023CB5C013A134002D001238375D5
:10C6C000DEE78375DCE7C046F0B557464E46454683
:10C6D000DE46E0B595B0040004A80200584BE0CB5C
:10C6E000E0C21B681360002C00D1A6E0002900D135
:10C6F000A3E001235B42A3820B682100A361002316
:10C70000A375FFF7AFFF071E07D0380015B03CBC7C
:10C7100090469946A246AB46F0BD237802A98B709D
:10C720000123A21C012099460B80FFF797FF071EEB
:10C73000EBD1032200216846FBF75CFD414B0DADB8
:10C740009A466B4652461A8006229B7800219343F4
:10C75000022213436A46280093701C22FBF74AFD0D
:10C7600010222B7801AE13432B706B466A466B6127
:10C7700023780021937303233000938103226F6099
:10C78000EF602F61AF61FBF735FD53461F22338009
:10C79000B378934693431C3A13430021113208A8FF
:10C7A000B370FBF727FD03AB08934B460A93133393
:10C7B00098466B4641469985230008A90A0060887F
:10C7C0000C3329000996FFF74BFF071E9DD11C2251
:10C7D00000212800FBF70EFD0C2269462B78300063
:10C7E000934313432B70237803228B7302238B8193
:10C7F00000216F60EF602F616F61AF61FBF7FAFCA2
:10C800005346594603223380B37808A88B43134319
:10C8100000211132B370FBF7EDFC03AB08934B46DC
:10C8200042460A936B469A856088231D08AA290010
:10C830000996FFF715FF070067E70E2765E7C04673
:10C84000F0270200111100002EDF704751DF704702
:10C8500010DF704761DF704710B50800110000E07D
:10C8600000BF10BDF0B5D6464F464646C0B53B4B5F
:10C8700082B01E68994675427541394BEDB29A46B1
:10C880001B68002B52D1002E05D102B01CBC904673
:10C890009946A246F0BD334B01269846324F01AC73
:10C8A0003B882100238043461D682800FFF7D2FF04
:10C8B000052830D0002826D14B4628001B68984711
:10C8C000002E26D12000FFF7C1FF052821D0002827
:10C8D0003ED10025534601981B689847002D0DD086
:10C8E0002000FFF7B3FF01250528CED00028F1D0A6
:10C8F00000220021FEF7C2FA002DF1D1194B1A4F88
:10C9000098460026CCE700220021FEF7B7FA002E59
:10C91000D8D00126C4E7002EB7D12000FFF796FF3C
:10C920000528B2D000280ED10125D3E701AC2000A4
:10C93000FFF78CFF0528D9D1002EA6D0094B012680
:10C94000094F9846ACE700220021FEF797FAC7E7A7
:10C9500000220021FEF792FA0026A1E7D42500204C
:10C96000E0250020E4250020D225002010B5002974
:10C9700014D08C0712D10A4C21600A490A800A4A55
:10C980000A491360FFF764FF002800D010BD0122A0
:10C99000074B16301A70FFF757FFF7E70720F5E748
:10C9A000E4250020D2250020D825002059C8010008
:10C9B000DC250020002803D0024B186000207047BF
:10C9C0000E20FCE7D425002010B50A4B1B68002B75
:10C9D00008D09847002800D110BD00220021FEF7A2
:10C9E0004DFAF9E7044B1B78002BF5D0FFF73AFF1F
:10C9F000F2E7C046D8250020DC25002003210A48A4
:10CA000002680A430260094802680A430260084952
:10CA1000084A094B9B1A03DD043BC858D050FBDC85
:10CA2000064880470648004724050040540500405A
:10CA3000502A020000200020B420002009820100BA
:10CA400009810100FEE7FEE7FEE7FEE7FEE7FEE7FD
:10CA500049004B0819007047F0B54746CE4680B5EF
:10CA60008DB004000D0000F059F8264B06009846E2
:10CA70001B780F005BB2013312D022002B00200084
:10CA8000290003F0EBFB8146002809D12000290092
:10CA9000FFF7DEFF00221C4B00F0FEFE002806D14F
:10CAA000300039000DB00CBC90469946F0BD012312
:10CAB0000293164B164803934B46069407950A9328
:10CAC0000494059500F042FD43461B7808900991B7
:10CAD0005BB2022B0BD002A800F036FD002806D076
:10CAE0000A9B0193002B07D1089E099FD8E703F00A
:10CAF00077FC21230360F3E703F072FC0A9B0193A8
:10CB00000360F1E7A82000200000F03F00280200A9
:10CB1000FC19020010B500F0E9F910BDF0B54F4660
:10CB2000D64680B5CF4B4E0089B007008A4689466D
:10CB300076089E4228DDCC4B9C46664406430ED0C8
:10CB400002000B003800514602F0F0FF02000B001B
:10CB500002F066F909B00CBC91469A46F0BDC34A92
:10CB6000C34B3800514602F059FDC24A04000D0083
:10CB7000C14B3800514602F051FD02000B0020006D
:10CB8000290001F0D7FDE5E7BC4B9E4210DCBC4B11
:10CB90009E4200DDFEE0BB4ABB4B3800514601F02F
:10CBA000C9FD0022B94B00F077FE002800D0EEE06E
:10CBB00038005146FFF74CFF02000B000020B3493C
:10CBC00002F0B4FF0022B24B02F028FD04000D0079
:10CBD000B04AB14B02F022FDB04AB14B01F0AAFDC0
:10CBE00022002B0002F01AFDAE4AAF4B02F09EFF6E
:10CBF00022002B0002F012FDAC4AAD4B01F09AFD71
:10CC000022002B0002F00AFDAA4AAB4B02F08EFF75
:10CC100022002B0002F002FDA84AA94B01F08AFD78
:10CC200022002B0002F0FAFCA64A02900391A64BC8
:10CC30002000290002F0F2FCA44AA54B02F076FF86
:10CC400022002B0002F0EAFCA24AA34B01F072FD85
:10CC500022002B0002F0E2FCA04AA14B02F066FF8A
:10CC600022002B0002F0DAFC884B002201F062FD6A
:10CC7000049005912000290000F0F6F9994B0090EE
:10CC800001919E4264DC0098019902000B000F00A4
:10CC900001F050FD049A059B0690079102980399B4
:10CCA00002F0BEF802000B000698079902F0B6FCED
:10CCB00000260290039132003B003000390002F060
:10CCC000ADFC02000B002000290002F02FFF320013
:10CCD00004000D00009801993B0001F02BFD0200BB
:10CCE0000B002000290002F09BF802000B0001F06D
:10CCF00021FD02000B005F485F4902F017FF0200B0
:10CD00000B000298039902F011FF320004000D009D
:10CD10003B003000390001F00DFD02000B005348CC
:10CD2000714902F003FF02000B002000290002F00D
:10CD3000FDFE02000B004D486B4902F0F7FE4B462A
:10CD4000002B00DD06E780231B069C46614401E7BB
:10CD5000049A059B0298039902F062F8009C019DD9
:10CD600022002B0002F05AFC22002B0001F0E2FC12
:10CD700002000B0001F0DEFC3E4A3F4B02F0D6FE03
:10CD800002000B0039483A4902F0D0FED7E73800DC
:10CD90005146DFE602000B003800514602F03EFC2F
:10CDA00004000D003B4A3C4B02F038FC3B4A3C4B34
:10CDB00001F0C0FC22002B0002F030FC394A3A4B53
:10CDC00002F0B4FE22002B0002F028FC374A384B58
:10CDD00001F0B0FC22002B0002F020FC354A364B5B
:10CDE00002F0A4FE22002B0002F018FC334A344B60
:10CDF00001F0A0FC22002B0002F010FC314A009050
:10CE00000191314B2000290002F008FC2F4A304BE1
:10CE100002F08CFE22002B0002F000FC2D4A2E4B6B
:10CE200001F088FC22002B0002F0F8FB2B4A2C4B6F
:10CE300002F07CFE22002B0002F0F0FB0022134BDC
:10CE400001F078FC02000B000098019901F0E8FF66
:10CE50003A00534602F0E2FB3A00534601F06AFC06
:10CE600078E6C046FFFFEF3F000010C0182D445485
:10CE7000FB21F93F075C143326A6913CFFFFDF3FFF
:10CE8000FFFF3F3E9C7500883CE4377E0000F03F8A
:10CE90000000E03F09F7FD0DE13D023F88B201755A
:10CEA000E0EF493F3B8F68B52882A43F5544880E88
:10CEB00055C1C93F7D6FEB0312D6D43F555555552B
:10CEC0005555C53F82922EB1C5B8B33F59018D1B50
:10CED0006C06E63FC88A599CE52A00404B2D8A1C07
:10CEE000273A03403233EF3FFB21E93FF8B5150005
:10CEF0004746CE465A001C006B4280B52B434C4F30
:10CF00005208DB0F1343BB421DD84B005B089C4605
:10CF1000664643420343DB0F89463343BB4212D884
:10CF2000444BE3182B433FD00226A3171E40CB0FE0
:10CF30001E436346034310D1022E38D0032E08D17E
:10CF40003D483E4905E002000B002800210001F0A9
:10CF5000F1FB0CBC90469946F8BD13002B431DD045
:10CF6000BA422AD0BC4519D063469A1A12153C2AF7
:10CF700020DC002C2EDA3C322CDA00200021012E9D
:10CF80003CD0022E2FD0002EE3D02D4A2D4B02F0A4
:10CF9000CDFD294A2C4B02F0C9FDDAE74B46264865
:10CFA000002B15DB2949D4E700F03CF9D1E72248F2
:10CFB0002549CEE720482549E1E7944523D0022EB4
:10CFC000F5D0032EBCD00020012E25D00021C0E7D3
:10CFD0001F49BEE72A00230001F022FFFFF738FDBA
:10CFE00000F020F9CBE7164A164B02F09FFD020035
:10CFF0000B001148144902F099FDAAE78024240689
:10D000000B191900A5E7022E0ED0032E09D00A48ED
:10D01000012E04D00F499CE78021090699E70E49AB
:10D0200097E70E480E4994E70C480E4991E7C04631
:10D030000000F07F000010C0182D4454FB2109C0EF
:10D04000075C143326A6A13CFB210940FB21F93FD4
:10D05000FB21F9BFFB21E93FFB21E9BFD221337F4F
:10D060007CD902C07CD90240F8B54746CE466A4A10
:10D0700080B50B000F0011000500040039409142FB
:10D0800000D1A1E0002F69DD3F1500D1B4E0634A73
:10D090001B03944680221B0B520313435B00E20FD9
:10D0A00067449B186200F90703D5D20F5B009B18F9
:10D0B000A20079108C460021802016248946800326
:10D0C0000D189D4202DC29185B1B8144D50F5B00C3
:10D0D000013CEB1852004008002CF1D100208046A2
:10D0E000802020250027000609E08B425DD0D40F68
:10D0F0005B00013D1B1952004008002D16D0C419D9
:10D100008B42F2DD27180E00002C4ADB5B1AA2428C
:10D11000894149425B1A121BD40F5B00013D8044D8
:10D1200031001B1952004008002DE8D1134344D1AF
:10D1300043465B083A494A468846494652104244AB
:10D14000C90702D5802109060B4361461D000F0562
:10D15000B91828000CBC90469946F8BD7A005208D0
:10D1600002434CD0002F3BD1E00A153B020064057E
:10D170000028F9D080214903084247D180200027A8
:10D18000400300E02F0052007D1C0242FAD020260E
:10D1900010002200AC40761BDF1B1300F34003435A
:10D1A00075E7FE43F60F8E19B0E794429FD8271813
:10D1B000002CF6DB1E000023ADE74346013320D0F0
:10D1C000434601335B08B5E702003B002800390005
:10D1D00002F024FA2A003B0001F0ACFA0500B8E79F
:10D1E00002003B002800390002F0A0FC02000B0006
:10D1F00001F016FE0500ACE71A000023BEE7390077
:10D20000A7E7012398460023C14493E701272200A2
:10D2100020267F42C0E7C0460000F07F01FCFFFFF0
:10D220000000E03FF8B54E4657464546DE469F4B68
:10D23000E0B54E0080468A46894676089E421CDD4F
:10D240009B4B9E4209DC06D04B46002B00DCBAE02B
:10D25000984B994A09E00028F6D04246534640468A
:10D26000514601F067FA03000A00180011003CBCA7
:10D2700090469946A246AB46F8BD904B9E4200DDD3
:10D28000ADE08F4B9E4200DC8FE001235B429B466A
:10D29000424653464046514602F0C0F902000B0098
:10D2A00006000F0002F0BAF904000D00854A864B13
:10D2B00002F0B4F9854A864B01F03CFA22002B00BB
:10D2C00002F0ACF9834A844B01F034FA22002B00BF
:10D2D00002F0A4F9814A824B01F02CFA22002B00C3
:10D2E00002F09CF97F4A804B01F024FA22002B00C7
:10D2F00002F094F97D4A7E4B01F01CFA32003B00AB
:10D3000002F08CF97B4A06000F007B4B20002900BD
:10D3100002F084F9794A7A4B02F008FC22002B00D3
:10D3200002F07CF9774A784B02F000FC22002B00D7
:10D3300002F074F9754A764B02F0F8FB22002B00DC
:10D3400002F06CF9734A744B02F0F0FB22002B00E0
:10D3500002F064F902000B003000390001F0EAF934
:10D360005346424602F05AF95B4601332ED05B46E3
:10D370006A4A6B4CDB00E418D3181A685B6802F049
:10D38000D5FB4246534602F0D1FB02000B00206859
:10D39000616802F0CBFB030048460A00002800DB6E
:10D3A00063E7802212068A185FE75E4A5E4B01F04F
:10D3B000C1F900225D4B00F06FFA002800D164E74C
:10D3C0004346524651E73B4B594A4EE702000B0099
:10D3D0004046514602F0AAFB03000A0045E7FFF76A
:10D3E00037FB544B04000D009E421EDC524B9E4204
:10D3F00044DC02000B0001F09DF900224B4B02F0CF
:10D4000095FB802306000F000022DB052000290089
:10D4100001F090F90B0002003900300001F000FD2E
:10D42000002380468A469B4632E7444B9E421ADCE4
:10D430000022434B02F07AFB002206000F00404B13
:10D440002000290002F0EAF80022384B01F072F9BE
:10D450000B0002003900300001F0E2FC022380469C
:10D460008A469B4614E70B0002003649002001F073
:10D47000D7FC032380468A469B4609E700222B4BB4
:10D4800002F054FB002206000F00284B2000290068
:10D4900001F050F90B0002003900300001F0C0FC2F
:10D4A000012380468A469B46F2E6C046FFFF0F44B2
:10D4B0000000F07F182D4454FB21F93FFFFFDB3FB4
:10D4C000FFFF1F3E11DA22E33AAD903FEB0D7624C9
:10D4D0004B7BA93F513DD0A0660DB13F6E204CC59E
:10D4E000CD45B73FFF8300922449C23F0D555555A6
:10D4F0005555D53F2F6C6A2C44B4A2BF9AFDDE521D
:10D500002DDEAD3F6D9A74AFF2B0B33F711623FEBE
:10D51000C671BC3FC4EB98999999C93F282802006D
:10D52000082802009C7500883CE4377E0000F03F2C
:10D53000FB21F9BFFFFFF23FFFFFE53FFF7F034005
:10D540000000F83F0000F0BF0020704700200149B4
:10D550007047C0460000F87F002243088B4274D316
:10D5600003098B425FD3030A8B4244D3030B8B42E4
:10D5700028D3030C8B420DD3FF22090212BA030CED
:10D580008B4202D31212090265D0030B8B4219D3CE
:10D5900000E0090AC30B8B4201D3CB03C01A5241EE
:10D5A000830B8B4201D38B03C01A5241430B8B4236
:10D5B00001D34B03C01A5241030B8B4201D30B031F
:10D5C000C01A5241C30A8B4201D3CB02C01A524146
:10D5D000830A8B4201D38B02C01A5241430A8B4209
:10D5E00001D34B02C01A5241030A8B4201D30B02F2
:10D5F000C01A5241CDD2C3098B4201D3CB01C01A0C
:10D60000524183098B4201D38B01C01A5241430915
:10D610008B4201D34B01C01A524103098B4201D303
:10D620000B01C01A5241C3088B4201D3CB00C01A70
:10D63000524183088B4201D38B00C01A52414308E8
:10D640008B4201D34B00C01A5241411A00D201460D
:10D65000524110467047FFE701B5002000F0F0F896
:10D6600002BDC0460029F7D076E7704703460B435A
:10D670007FD4002243088B4274D303098B425FD3CB
:10D68000030A8B4244D3030B8B4228D3030C8B42F7
:10D690000DD3FF22090212BA030C8B4202D31212DD
:10D6A000090265D0030B8B4219D300E0090AC30BB2
:10D6B0008B4201D3CB03C01A5241830B8B4201D35F
:10D6C0008B03C01A5241430B8B4201D34B03C01A48
:10D6D0005241030B8B4201D30B03C01A5241C30AC0
:10D6E0008B4201D3CB02C01A5241830A8B4201D331
:10D6F0008B02C01A5241430A8B4201D34B02C01A1B
:10D700005241030A8B4201D30B02C01A5241CDD2BF
:10D71000C3098B4201D3CB01C01A524183098B420A
:10D7200001D38B01C01A524143098B4201D34B01F3
:10D73000C01A524103098B4201D30B01C01A524156
:10D74000C3088B4201D3CB00C01A524183088B42DD
:10D7500001D38B00C01A524143088B4201D34B00C6
:10D76000C01A5241411A00D2014652411046704738
:10D770005DE0CA0F00D04942031000D3404253403D
:10D7800000229C4603098B422DD3030A8B4212D3FD
:10D79000FC22890112BA030A8B420CD3890192112F
:10D7A0008B4208D3890192118B4204D389013AD06C
:10D7B000921100E08909C3098B4201D3CB01C01A41
:10D7C000524183098B4201D38B01C01A5241430954
:10D7D0008B4201D34B01C01A524103098B4201D342
:10D7E0000B01C01A5241C3088B4201D3CB00C01AAF
:10D7F000524183088B4201D38B00C01A5241D9D2C7
:10D8000043088B4201D34B00C01A5241411A00D247
:10D810000146634652415B10104601D34042002B43
:10D8200000D54942704763465B1000D3404201B5C2
:10D83000002000F005F802BD0029F8D016E7704777
:10D840007047C0468446101C62468C46191C6346CD
:10D8500000E0C0461FB501F07DFE002801D4002184
:10D86000C8421FBD10B501F0D1FD4042013010BDCE
:10D8700010B501F06FFE002801DB002010BD012073
:10D8800010BDC04610B501F065FE002801DD002086
:10D8900010BD012010BDC04610B501F0F7FD0028F5
:10D8A00001DC002010BD012010BDC04610B501F004
:10D8B000EDFD002801DA002010BD012010BDC0469A
:10D8C0008446081C6146FFE71FB500F07FFB002877
:10D8D00001D40021C8421FBD10B500F001FB404239
:10D8E000013010BD10B500F071FB002801DB0020F5
:10D8F00010BD012010BDC04610B500F067FB002828
:10D9000001DD002010BD012010BDC04610B500F0A3
:10D910000FFB002801DC002010BD012010BDC04617
:10D9200010B500F005FB002801DA002010BD012031
:10D9300010BDC046F0B5CE46474615042D0C2E004E
:10D9400080B50704140C3F0C9946030C7E435D43DD
:10D95000674363437F19340CE4199C46A54203D9FD
:10D9600080235B029846C4444B4643435143250CF5
:10D9700036046544360C2404A4195B195918200098
:10D980000CBC90469946F0BD9E2110B5C905041CFB
:10D99000FFF7C6FF002803D1201C00F021FE10BDB8
:10D9A0009E21201CC90500F075FC00F019FE8023A3
:10D9B0001B069C466044F2E7F8B54C02640A4746F1
:10D9C000A0464C00C90FCE46894641464302460058
:10D9D0005B0A360E240E80B5C50F9C463200D80077
:10D9E000C900371B4D4560D0002F48DD002C00D109
:10D9F0007CE0FF2E00D183E08023DB041943012368
:10DA00001B2F07DC0B002022FB40D71BB9404A1E0E
:10DA100091410B43C31A5A0100D4A8E09B019C0911
:10DA2000200002F0BFFC05388440864200DDADE0F6
:10DA3000861B220020200136F240861BB4402300C2
:10DA40005C1EA341002613435A0704D00F221A403C
:10DA5000042A00D004335A0100D48BE00136F2B21C
:10DA6000FF2E00D18FE09B015B0A5B02D205580AB2
:10DA7000ED07104328430CBC90469946F8BD002F93
:10DA800049D1FE24771C3C4200D086E0002E00D015
:10DA9000DEE0002800D1D1E00029E6D0431A5C0185
:10DAA00000D4F1E00B1A4D46CEE7002F4ADD002CE2
:10DAB0003FD0FF2E24D08023DB04194301231B2FEA
:10DAC00007DC0B002022FB40D71BB9404A1E9141C6
:10DAD0000B431B185A014AD50136FF2E53D00122A1
